:1000000045C0000058C0000056C0000054C00000A9
:1000100052C0000050C000004EC000004CC00000A4
:100020004AC0000048C0000046C0000044C00000B4
:1000300042C0000040C000003EC000003CC00000C4
:100040003AC0000038C0000036C0000034C00000D4
:1000500032C0000030C000002EC000002CC00000E4
:100060002AC0000028C0000026C0000024C00000F4
:1000700022C0000020C000001EC000001CC0000004
:100080001AC0000018C0000016C0000011241FBED6
:10009000CFEFD0E4DEBFCDBF11E0A0E0B1E0EEEDE8
:1000A000F1E000E00BBF02C007900D92A832B1074B
:1000B000D9F753D092C0A4CFE1ECF0E020812861C1
:1000C0002083E2ECF0E0208122602083DC01CB0180
:1000D000880F991FAA1FBB1F880F991FAA1FBB1F3C
:1000E0009C01AD01220F331F441F551F220F331FE8
:1000F000441F551F60E072E18AE790E04CD08FEF1B
:10010000820F8093C400DA01C9010197A109B109E6
:10011000892F9A2FAB2FBB278093C5000895E0EC61
:10012000F0E080818823ECF78091C6000895E0EC30
:10013000F0E0908195FFFDCF8093C6000895CF93A6
:10014000DF93EC018881882329F02196F0DF8991E3
:100150008111FCCFDF91CF9108958FEF84B960E8D2
:1001600075E280E090E0A8DF15B8C1E0D8DF813308
:1001700039F4C5B980E091E0E2DF85E0D8DFF6CF61
:10018000823329F415B887E091E0D9DFEFCF8FE013
:1001900091E0D5DFEBCFA1E21A2EAA1BBB1BFD011C
:1001A0000DC0AA1FBB1FEE1FFF1FA217B307E40756
:1001B000F50720F0A21BB30BE40BF50B661F771FAE
:1001C000881F991F1A9469F760957095809590958E
:0E01D0009B01AC01BD01CF010895F894FFCF53
:1001DE004C45445F4F4E004C45445F4F46460045EC
:1001EE006E746572206120636F7272656374204352
:0801FE006F6D6D616E6400007D
:00000001FF
