S016000042692D706F6C6F72204D6F746F722E73726563D9
S113000045C0000060C000005EC000005CC000008D
S11300105AC0000058C0000056C0000054C0000080
S113002052C0000050C000004EC000004CC0000090
S11300304AC0000048C0000046C0000044C00000A0
S113004042C0000040C000003EC000003CC00000B0
S11300503AC0000038C0000036C0000034C00000C0
S113006032C0000030C000002EC000002CC00000D0
S11300702AC0000028C0000026C0000024C00000E0
S113008022C0000020C000001EC0000011241FBEBA
S1130090CFEFD0E4DEBFCDBF11E0A0E0B1E0E4EEED
S11300A0F1E000E00BBF02C007900D92A030B10751
S11300B0D9F721E0A0E0B1E001C01D92A030B20761
S11300C0E1F771D08DC09CCF86E082B98FE29CE0CD
S11300D00197F1F700C0000008958AE082B98FE229
S11300E09CE00197F1F700C00000089589E082B90F
S11300F08FE29CE00197F1F700C00000089585E0CD
S113010082B98FE29CE00197F1F700C000000895E6
S113011086E085B98FE29CE00197F1F700C000000A
S113012008958AE085B98FE29CE00197F1F700C059
S11301300000089589E085B98FE29CE00197F1F70A
S113014000C00000089585E085B98FE29CE0019726
S1130150F1F700C000000895DBDFB6DFE2DFBDDFAA
S1130160E9DFC4DFF0DFCBCF0895EDDFC8DFE2DFE6
S1130170BDDFD7DFB2DFCCDFA7CF0895E4DFA4DF94
S1130180D9DFABDFCEDFB2DFC3DFB9CF0895B7DF8E
S1130190BFDFACDFC6DFA1DFCDDF96DFD4CF0895AC
S11301A012B815B808958FEF81B912B884B915B88B
S11301B017B888B91AB88BB986B14F9902C0CCDF89
S11301C0FBCF809580FF02C0D9DFF6CF81FF02C04C
S11301D0CCDFF2CF82FF02C0DADFEECFE1DFECCF7B
S10701E0F894FFCFBD
S9030000FC
